:0400000007EF00F016
:100008005F8221ED0BF07DEF18F0DD0E0101056F29
:100018000BEF06F0250E1B19D8B40BD0D9C0D9FFA9
:10002800DAC0DAFF1BC1DFFF0001D94BDA2B0BEF77
:1000380006F0000E186F000E176F000E136F000EFB
:10004800126F05D0010112850001DB4BDC2BDBC0F0
:10005800F6FFDCC0F7FF0800F550300AD8B4F2D735
:10006800DBC0F6FFDCC0F7FF0800F5502FEC1AF0F4
:10007800D8A038D0000E0101186F000E176F17C1F5
:1000880080F018C181F0000E0001836F0A0E826FA4
:10009800D1EC19F080C017F181C018F1D00EE46FCF
:1000A800FF0EE56FDBC0F6FFDCC0F7FF0800F55078
:1000B800E66FE76BE451E627E551E723E6510101D6
:1000C80017270001E751010118230001DB4BDC2B46
:1000D800DBC0F6FFDCC0F7FF0800F5502FEC1AF084
:1000E800D8B0CDD7DBC0F6FFDCC0F7FF0800F5506D
:1000F8002E0AD8A43ED00101138D0001DB4BDC2B66
:10010800000E01011A6F000E196F28D019C180F076
:100118001AC181F0000E836F0A0E826FD1EC19F0BC
:1001280080C019F181C01AF1D00EE46FFF0EE56F9F
:10013800DBC0F6FFDCC0F7FF0800F550E66FE76BA1
:10014800E451E627E551E723E651010119270001AB
:10015800E75101011A230001DB4BDC2BDBC0F6FF62
:10016800DCC0F7FF0800F5502FEC1AF0D8A0AAD091
:10017800CDD7000E01011A6F000E196F1389A2D096
:100188001385BDD00551D96EDA6ADECF03F1DDCF14
:1001980004F1020E052703510411D8A404D0C30E9C
:1001A800036FFF0E046F000E076F000E066F03D07B
:1001B8000101064B072B065103250001E46F0101DD
:1001C800075104210001E56FE4C0F6FFE5C0F7FF21
:1001D800000EF86E0F0EF76403D00800F55005D036
:1001E800F6CFE9FFF7CFEAFFEF500009D8A4E0D730
:1001F800010119511A11D8B411D00651195D1A51BB
:10020800800A0001E46F01010751800A0001E459E6
:10021800D8B004D019C106F11AC107F1010117516C
:10022800065D18510759D8B005D00651175F075118
:10023800185B0ED0000E186F000E176F09D0D9C0CA
:10024800D9FFDAC0DAFF200EDF6E0001D94BDA2BB6
:1002580001011707D8A018071729F1E11829D8B400
:100268001DD0EDD703C1F6FF04C1F7FF000EF86EED
:10027800D9C0D9FFDAC0DAFF0F0EF76403D008003F
:10028800F55005D0F6CFE9FFF7CFEAFFEF50DF6E64
:100298000101034B042B0001D94BDA2B010106079E
:1002A800D8A007070629DEE10729D8B40BEF06F026
:1002B800D9D71B0E036F010E046F000E076F010ED6
:1002C800066F96D7DBC0F6FFDCC0F7FF0001DB4BFB
:1002D800DC2B0800F5CF1BF101011B51000AD8B433
:1002E8001AEF06F0640AD8B40AD0020AD8B448D77C
:1002F8000F0AD8B404D01A0AD8B444D7DAD7070EEC
:100308001315D8B438D313A904D0000E1A6F060EEB
:10031800196F0551D96EDA6ADECF14F1DECF15F107
:10032800DDCF16F1030E052716AF11D014C180F0EA
:1003380015C181F016C182F0E4EC19F080C014F107
:1003480081C015F182C016F1030E01011213000ECF
:10035800116F000E106F145115111611D8B48BD0EF
:10036800820E0001E46FFF0EE56F14C1E6F015C1BF
:10037800E7F016C1E8F017C1E9F0100E05D0D890E3
:10038800E933E833E733E633E82EF9D7E651E425D5
:100398000101106F000E0001E5210101116F100726
:1003A800D8A0110710C180F011C181F0000E000122
:1003B800836F030E826FD1EC19F080C010F181C0F9
:1003C80011F110C186F011C187F0000E896F0A0E75
:1003D800886FDAEC15F086C010F187C011F10101C1
:1003E80011AF03D01007D8A01107105100086BEC0B
:1003F80009F0B3C008F1B4C009F1B5C00AF108C1E9
:10040800A4F009C1A5F00AC1A6F014C1A7F015C14E
:10041800A8F016C1A9F0E6EC11F0A4C008F1A5C037
:1004280009F1A6C00AF108C1D0F009C1D1F00AC18A
:10043800D2F0000ED36F800ED46F3F0ED56F5EECF6
:1004480016F0D8B005D001011007D8A0110713D0B5
:1004580008C1D0F009C1D1F00AC1D2F0000ED36FA3
:10046800200ED46F410ED56F5EEC16F0D8A003D0E5
:100478000101104B112B01011ABF06D01A511BE1C3
:100488000D0E195DD8B017D014C1BEF015C1BFF05C
:1004980016C1C0F019512DEC0CF0B3C0C1F0B4C0B6
:1004A800C2F0B5C0C3F0F8EC0DF0BEC014F1BFC087
:1004B80015F1C0C016F1010111BF06D0115120E19C
:1004C8000A0E105DD8B01CD0145115111611D8B4ED
:1004D80057D014C1CAF015C1CBF016C1CCF0C0EC8E
:1004E80013F0CA51CB11CC11CD11D8A449D00101B8
:1004F80011BF46D0115104E1020E105DD8A040D0C2
:1005080008C1D0F009C1D1F00AC1D2F0700E0001C3
:10051800D36F890ED46F400ED56F5EEC16F0D8B04D
:1005280003D00101F70E02D00101F80E1027FF0ECB
:10053800112310516BEC09F0B3C008F1B4C009F1F4
:10054800B5C00AF114C180F015C181F016C182F05E
:1005580008C183F009C184F00AC185F0ECEC10F001
:1005680080C00CF181C00DF182C00EF183C00FF183
:10057800000E0101146F000E156F000E166F33D0B8
:1005880014C1CAF015C1CBF016C1CCF0C0EC13F001
:10059800CAC00CF1CBC00DF1CCC00EF1CDC00FF12B
:1005A80014C1CAF015C1CBF016C1CCF00CC188F04B
:1005B8000DC189F00EC18AF00FC18BF0A1EC17F0C4
:1005C80088C0CDF089C0CEF08AC0CFF0C5EC18F055
:1005D800CAC014F1CBC015F1CCC016F1000E010150
:1005E800116F000E106F010E1B6F0A0E1B19D8B485
:1005F80018D01B51040DB70EF324F66EFE0EF4202E
:10060800F76E0900F5500C5D0900F5500D59090009
:10061800F5500E590900F5500F59D8A002D01B2BE0
:10062800E4D71B5119250001E46F000E01011A21BE
:100638000001E56F010110510001E427010111518A
:100648000001E523E4510101175F0001E5510101B3
:10065800185B19511A11D8B403D01707D8A0180776
:1006680012C1E4F0030E0001E417D8B404D001016C
:100678001707D8A01807010112A533D012C1E4F05A
:10068800030E0001E417D8B416D0D9C0D9FFDAC0D8
:10069800DAFF2D0EDF6ED94BDA2B0DD0D9C0D9FF7A
:1006A800DAC0DAFF300EDF6E0001D94BDA2B010118
:1006B8001707D8A01807010118BF73D01851EEE129
:1006C8001705D8A06ED0EAD7D9C0D9FFDAC0DAFFAB
:1006D800200EDF6E0001D94BDA2B01011707D8A0D5
:1006E800180718BF05D01851EFE11705D8B0ECD797
:1006F80012C1E4F0030E0001E417D8B452D0D9C0F7
:10070800D9FFDAC0DAFF2D0EDF6E49D00CC180F0B8
:100718000DC181F00EC182F00FC183F01B51040D91
:10072800B70EF324F66EFE0EF420F76E0900F5CF2F
:1007380084F00900F5CF85F00900F5CF86F00A00AE
:10074800F5CF87F01CEC16F080C008F181C009F1E4
:1007580082C00AF183C00BF108C18DF009C18EF087
:100768000AC18FF00BC190F00A0E916F000E926FC4
:10077800000E936F000E946F3FEC17F08DC008F1D8
:100788008EC009F18FC00AF190C00BF10101085128
:10079800300FD9C0D9FFDAC0DAFFDF6E0001D94BBC
:1007A800DA2B01011B071B29D8B40ED0AFD7D9C04B
:1007B800D9FFDAC0DAFF300EDF6E0001D94BDA2B31
:1007C80001011007D8A0110711BF05D01151EFE1A1
:1007D8001005D8B0ECD71ABF09D01A5104E1090E98
:1007E800195DD8A003D0080E1B6F02D019C11BF1E8
:1007F8001B51195F000E1A5B1B51D8B409D0D9C020
:10080800D9FFDAC0DAFF2E0EDF6E0001D94BDA2BE2
:1008180001011B516BEC09F0B3C000F1B4C001F148
:10082800B5C002F114C1A7F015C1A8F016C1A9F00E
:1008380000C1A4F001C1A5F002C1A6F0E6EC11F0D8
:10084800A4C0CAF0A5C0CBF0A6C0CCF0C0EC13F091
:10085800CAC00CF1CBC00DF1CCC00EF1CDC00FF168
:1008680072D00CC180F00DC181F00EC182F00FC1B1
:1008780083F01B51040DB70EF324F66EFE0EF42020
:10088800F76E0900F5CF84F00900F5CF85F009006F
:10089800F5CF86F00A00F5CF87F01CEC16F080C083
:1008A80008F181C009F182C00AF183C00BF108C1C7
:1008B8008DF009C18EF00AC18FF00BC190F00A0EBD
:1008C800916F000E926F000E936F000E946F3FECC5
:1008D80017F08DC008F18EC009F18FC00AF190C0E1
:1008E8000BF101010851300FD9C0D9FFDAC0DAFF86
:1008F800DF6E0001D94BDA2B0CC18DF00DC18EF0E3
:100908000EC18FF00FC190F001011B51040DB70EFD
:10091800F324F66EFE0EF420F76E0900F5CF91F081
:100928000900F5CF92F00900F5CF93F00A00F5CF52
:1009380094F03FEC17F08DC00CF18EC00DF18FC014
:100948000EF190C00FF101011B071B29D8B40ED07E
:1009580088D7D9C0D9FFDAC0DAFF300EDF6E0001C0
:10096800D94BDA2B01011907D8A01A0719511A1106
:10097800D8B44DD1EED70551D96EDA6ADECF0CF175
:10098800DDCF0DF1000E0DBFFF0E0E6F0F6F020EC3
:1009980005270FAF0AD0030E12130F1F0E1F0D1FCE
:1009A8000C6D000E0D230E230F2319511A11D8A414
:1009B80008D00C510D110E110F11D8A402D0194BEB
:1009C8001A2B010E1B6F0A0E1B19D8B418D01B5115
:1009D800040DB70EF324F66EFE0EF420F76E090030
:1009E800F5500C5D0900F5500D590900F5500E59E8
:1009F8000900F5500F59D8A002D01B2BE4D71B5182
:100A08000001E46FE56B010119510001E45DE55156
:100A1800800AE66F01011A51800A0001E659D8B030
:100A280003D019C11BF115D001011B510001E46F5E
:100A3800E56BE4510101195D1A51800A0001E66F66
:100A4800E551800AE659D8B004D01BC119F101015B
:100A58001A6B010117511811D8B40BD012C1E4F068
:100A6800030E0001E417D8B404D001011707D8A079
:100A78001807010113AD18D01751195D1A51800AD2
:100A88000001E46F01011851800A0001E459D8B04F
:100A980006D001011951175F1A51185B05D0000ED5
:100AA8000101186F000E176F1B510001E46FE56B11
:100AB800010117510001E45DE551800AE66F01016B
:100AC8001851800A0001E659D8B006D001011B511F
:100AD800175F000E185B05D0000E0101186F000E9D
:100AE800176F12A522D012C1E4F0030E0001E4171B
:100AF800D8B408D0D9C0D9FFDAC0DAFF2D0EDF6E1E
:100B0800D94BDA2B010117511811D8B477D0D9C0B5
:100B1800D9FFDAC0DAFF300EDF6E0001D94BDA2BCD
:100B280001011707D8A01807EED717511811D8B424
:100B380011D0D9C0D9FFDAC0DAFF200EDF6E00016C
:100B4800D94BDA2B01011707D8A01807175118112C
:100B5800D8A4EFD712C1E4F0030E0001E417D8B40B
:100B68004DD0D9C0D9FFDAC0DAFF2D0EDF6E44D0E0
:100B780019C1E4F01AC1E5F00001D890E437E5376F
:100B8800D890E437E537B70EE425F66EFE0EE5217A
:100B9800F76E0900F5CF84F00900F5CF85F009005C
:100BA800F5CF86F00A00F5CF87F00CC180F00DC1B3
:100BB80081F00EC182F00FC183F01CEC16F080C0EA
:100BC8008DF081C08EF082C08FF083C090F00A0E45
:100BD800916F000E926F000E936F000E946F3FECB2
:100BE80017F08D51300F01011B6FD9C0D9FFDAC042
:100BF800DAFF1BC1DFFF0001D94BDA2B010119070E
:100C0800D8A01A071929B4E11A29D8A4B1D7DBC08A
:100C1800F6FFDCC0F7FF0001DB4BDC2B0800F5CF4B
:100C28001BF101011B51D8A40EEF00F0D9C0D9FF68
:100C3800DAC0DAFF000EDF6E120060EC1AF040EC4A
:100C48001AF06BEC10F0B0EC1AF073EC17F0C8EC7B
:100C58001AF0130E816FFF0E826FFDEC17F00C0E69
:100C6800CFEC17F0000E0101626F000E4C6E000E03
:100C78004B6E000E536E000E546E000E556E000E35
:100C8800856F000E866F000E876F000E506E000E87
:100C9800516E000E526E000E4D6E000E4E6E000E1E
:100CA8004F6E000E566E000E576E000E586E000EF8
:100CB8004A6E000E496E000E486E000E476E000E1A
:100CC8000001F46F000EF36F000E466E000E456EC5
:100CD800000E446E000E436E94800400000E0AEC71
:100CE80017F09BC0A4F09CC0A5F09DC0A6F0000E14
:100CF800A76FA00EA86F410EA96FE6EC11F0A4C073
:100D080053F0A5C054F0A6C055F0010E0AEC17F038
:100D18009BC0A4F09CC0A5F09DC0A6F0000EA76FD4
:100D2800A00EA86F410EA96FE6EC11F0A4C085F1E2
:100D3800A5C086F1A6C087F1020E0AEC17F09BC089
:100D4800A4F09CC0A5F09DC0A6F0000EA76FC80E29
:100D5800A86F420EA96FE6EC11F0A4C050F0A5C030
:100D680051F0A6C052F0010E8A6F010EA3EC18F0E4
:100D7800250E0001D96F010EDA6FA60EDB6FFF0E8C
:100D8800DC6F50C0DDF051C0DEF052C0DFF009EC7E
:100D980000F0250E00018E6F010E8F6F29EC18F000
:100DA800010E00018A6F0E0EA3EC18F0E50E00018B
:100DB8008E6FFF0E8F6F29EC18F0020E00018A6FFC
:100DC800010EA3EC18F0250E0001D96F010EDA6FA1
:100DD8009B0EDB6FFF0EDC6F53C0DDF054C0DEF0FE
:100DE80055C0DFF009EC00F0250E00018E6F010EF2
:100DF8008F6F29EC18F0020E00018A6F0E0EA3EC1B
:100E080018F082BA05D0FA0E01014C6FFF0E04D01B
:100E1800FC0E01014C6FFF0E4D6F4CC18EF04DC1A1
:100E28008FF029EC18F0020E00018A6F100EA3EC67
:100E380018F082B405D0FA0E01014E6FFF0E04D0EF
:100E4800FC0E01014E6FFF0E4F6F4EC18EF04FC169
:100E58008FF029EC18F0020E49184A10D8B454D073
:100E6800030E00018A6F010EA3EC18F049504A10D6
:100E7800D8B40CD045C080F046C081F0000E000107
:100E8800836F050E826FD1EC19F00BD0F3C080F0A0
:100E9800F4C081F0000E0001836F050E826FD1EC63
:100EA80019F080C050F181C051F149504A10D8B4AE
:100EB80005D0E70E0101526FFF0E04D0F80E0101B4
:100EC800526FFF0E536F250E0001D96F010EDA6FB6
:100ED8007B0EDB6FFF0EDC6F85C1DDF086C1DEF0B7
:100EE80087C1DFF052C1E0F053C1E1F050C1E2F038
:100EF80051C1E3F009EC00F0250E00018E6F010EE0
:100F08008F6F29EC18F018D0030E00018A6F010EBC
:100F1800A3EC18F0250E0001D96F010EDA6FB10E9F
:100F2800DB6FFF0EDC6F85C1DDF086C1DEF087C1A7
:100F3800DFF009EC00F0E0D7040E00018A6F010E23
:100F4800A3EC18F049504A10D8B413D049044A10F9
:100F5800D8B405D0DB0E0101566FFF0E04D0D60EB3
:100F68000101566FFF0E576F56C154F157C155F125
:100F780005D0E00E0101546FFF0E556F250E0001DC
:100F8800D96F010EDA6FD00EDB6FFF0EDC6F54C124
:100F9800DDF055C1DEF009EC00F0250E00018E6F82
:100FA800010E8F6F29EC18F0040E00018A6F0D0EE8
:100FB800A3EC18F0020E49184A10D8A434D0000E39
:100FC8000001D06F700ED16F420ED26F85C1D3F081
:100FD80086C1D4F087C1D5F05EEC16F0D8A01FD03A
:100FE80085C1D0F086C1D1F087C1D2F0000ED36F91
:100FF800200ED46F420ED56F5EEC16F0D8A005D047
:10100800000E0101596F020E04D0000E0101596F44
:10101800010E586F58C147F059C148F004D0000E6E
:10102800486E000E476E040E00018A6F090EA3EC8D
:1010380018F0020E49184A10D8A42CD0475048106E
:10104800D8B413D047044810D8B405D0EC0E010129
:101058005C6FFF0E04D0F20E01015C6FFF0E5D6F36
:101068005CC15AF15DC15BF105D0EF0E01015A6F09
:10107800FF0E5B6F250E0001D96F010EDA6FD30EDC
:10108800DB6FFF0EDC6F5AC1DDF05BC1DEF009ECEF
:1010980000F00BD0250E0001D96F010EDA6FE90EB2
:1010A800DB6FFF0EDC6F09EC00F0250E00018E6F80
:1010B800010E8F6F29EC18F0020E49184A10D8A4B7
:1010C8002ED047504810D8A403D0A0EC0FF027D05A
:1010D80047044810D8A403D021EC0DF020D0000E0E
:1010E8000001D06F000ED16F000ED26F50C0CDF04E
:1010F80051C0CEF052C0CFF053C0CAF054C0CBF0AC
:1011080055C0CCF0C5EC18F0CAC0D3F0CBC0D4F0B1
:10111800CCC0D5F05EEC16F0D8A0DED7D6D7000E3E
:101128000101646F020E646501D0D7D564510AECE1
:1011380017F09BC045F19CC046F19DC047F10101E5
:101148006451030D1C0EF324D96E010EF420DA6EDF
:1011580045C1DEFF46C1DEFF47C1DEFF6DEC1AF078
:101168000009D8B410D0CEEC1AF00101636F530E09
:101178006319D8A402D0010E05D04E0E6319D8A465
:1011880002D0000E626F6251D8B49ED0250E0001C5
:10119800D96F010EDA6F3C0EDB6FFF0EDC6F53C0A8
:1011A800DDF054C0DEF055C0DFF085C1E0F086C147
:1011B800E1F087C1E2F009EC00F0250E0001816F33
:1011C800010E826FFDEC17F0250E0001D96F010E9C
:1011D800DA6F8F0EDB6FFF0EDC6F50C0DDF051C091
:1011E800DEF052C0DFF009EC00F0250E0001816F3F
:1011F800010E826FFDEC17F0F3C080F0F4C081F0AF
:10120800000E0001836F050E826FD1EC19F080C0CB
:1012180048F181C049F145C080F046C081F0000E18
:10122800836F050E826FD1EC19F080C04AF181C03E
:101238004BF1250ED96F010EDA6FDF0EDB6FFE0E54
:10124800DC6F48C1DDF049C1DEF04AC1DFF04BC1B7
:10125800E0F009EC00F0250E0001816F010E826FAD
:10126800FDEC17F049504A10D8B413D049044A107D
:10127800D8B405D0CA0E0101606FFF0E04D0670E06
:101288000101606FFF0E616F60C15EF161C15FF1C6
:1012980005D0530E01015E6FFF0E5F6F250E000132
:1012A800D96F010EDA6FD00EDB6FFF0EDC6F5EC1F7
:1012B800DDF05FC1DEF009EC00F0250E0001816F62
:1012C800010E826FFDEC17F00101642B2BD7000192
:1012D800B96F0001B9AFD9D0B96DB951800A120FF1
:1012E800D8A079D0000E896F0A0E886F000E836F20
:1012F800640E826FB951806F816B80BF8107D2EC19
:1013080016F080C086F081C087F0DAEC15F0090E7F
:1013180086278651030D900EF324F66EFE0EF420F8
:10132800F76E0900F5CFA7F00900F5CFA8F00A007D
:10133800F5CFA9F0000E896F640E886FB951866FDA
:10134800876B86BF8707DAEC15F0120E8627865161
:10135800030D900EF324F66EFE0EF420F76E0900CE
:10136800F5CFA4F00900F5CFA5F00A00F5CFA6F057
:10137800E6EC11F0A4C0B6F0A5C0B7F0A6C0B8F06E
:10138800B6C0A4F0B7C0A5F0B8C0A6F0000E836F31
:101398000A0E826FB951806F816B80BF8107D2ECD2
:1013A80016F08051030D900EF324F66EFE0EF42015
:1013B800F76E0900F5CFA7F00900F5CFA8F00A00ED
:1013C800F5CFA9F0E6EC11F0A4C0B3F0A5C0B4F0D5
:1013D800A6C0B5F01200B951800A750FD8A043D045
:1013E800000E896F0A0E886FB951866F876B86BFAA
:1013F8008707DAEC15F0090E86278651030D900E43
:10140800F324F66EFE0EF420F76E0900F5CFA4F073
:101418000900F5CFA5F00A00F5CFA6F0000E836FFE
:101428000A0E826FB951806F816B80BF8107D2EC41
:1014380016F08051030D900EF324F66EFE0EF42084
:10144800F76E0900F5CFA7F00900F5CFA8F00A005C
:10145800F5CFA9F0E6EC11F0A4C0B3F0A5C0B4F044
:10146800A6C0B5F01200B951030D900EF324F66E24
:10147800FE0EF420F76E0900F5CFB3F00900F5CFA2
:10148800B4F00A00F5CFB5F01200B951800A120F76
:10149800D8A079D0000E896F0A0E886F000E836F6E
:1014A800640E826FB951806F816B80BF8107D2EC67
:1014B80016F080C086F081C087F0DAEC15F0090ECE
:1014C80086278651030D690EF324F66EFE0EF4206E
:1014D800F76E0900F5CFA7F00900F5CFA8F00A00CC
:1014E800F5CFA9F0000E896F640E886FB951866F29
:1014F800876B86BF8707DAEC15F0120E86278651B0
:10150800030D690EF324F66EFE0EF420F76E090043
:10151800F5CFA4F00900F5CFA5F00A00F5CFA6F0A5
:10152800E6EC11F0A4C0B6F0A5C0B7F0A6C0B8F0BC
:10153800B6C0A4F0B7C0A5F0B8C0A6F0000E836F7F
:101548000A0E826FB951806F816B80BF8107D2EC20
:1015580016F08051030D690EF324F66EFE0EF4208A
:10156800F76E0900F5CFA7F00900F5CFA8F00A003B
:10157800F5CFA9F0E6EC11F0A4C0B3F0A5C0B4F023
:10158800A6C0B5F01200B951800A750FD8A043D093
:10159800000E896F0A0E886FB951866F876B86BFF8
:1015A8008707DAEC15F0090E86278651030D690EB8
:1015B800F324F66EFE0EF420F76E0900F5CFA4F0C2
:1015C8000900F5CFA5F00A00F5CFA6F0000E836F4D
:1015D8000A0E826FB951806F816B80BF8107D2EC90
:1015E80016F08051030D690EF324F66EFE0EF420FA
:1015F800F76E0900F5CFA7F00900F5CFA8F00A00AB
:10160800F5CFA9F0E6EC11F0A4C0B3F0A5C0B4F092
:10161800A6C0B5F01200B951030D690EF324F66E99
:10162800FE0EF420F76E0900F5CFB3F00900F5CFF0
:10163800B4F00A00F5CFB5F012000600A1A2DAD086
:10164800CF50326ECE50416E32C042F0A192020E9F
:1016580049184A10D8A45FD047504810D8B415D0BC
:10166800020E47184810D8A456D053C01BF054C0D7
:101678001CF055C01DF050C01EF051C01FF052C0E4
:1016880020F098EC16F0D8B046D050C01BF051C0EE
:101698001CF052C01DF04BC009F04CC00AF01DEC04
:1016A8001AF009C018F00AC019F00BC01AF053C09C
:1016B80015F054C016F055C017F0E6EC18F015C038
:1016C8001EF016C01FF017C020F098EC16F0D8B026
:1016D80021D0000E2A6E000E2B6E000E2C6E8EECA2
:1016E80015F04350326E4450336E434A442A335007
:1016F80006E1050E325CD8B002D0828A0CD0445084
:1017080004E10B0E435CD8A005D0000E446E000E19
:10171800436E01D0829A49504A10D8B413D0020EB1
:1017280049184A10D8A404D047044810D8B40AD09D
:10173800020E49184A10D8A433D0020E4718481090
:10174800D8A42ED0020E49184A10D8A405D0020EEB
:1017580047184810D8B408D0000E2A6E000E2B6E19
:10176800000E2C6E8EEC15F04350326E4450336EE2
:10177800434A442A0001F351325CF4513358D8B03B
:1017880002D0828A34D0445006E10B0E435CD8B0B4
:1017980002D0829A2CD0000E446E000E436E27D0E1
:1017A80049044A10D8A423D0829A45C009F046C0FB
:1017B8000AF01DEC1AF009C00CF00AC00DF00BC0BD
:1017C8000EF0000E0F6E200E106E410E116E60ECC2
:1017D80012F00CC034F00DC035F00EC036F034C035
:1017E8002AF035C02BF036C02CF08EEC15F08CECBE
:1017F8001AF02DD0F2A204D050EC1AF0F29227D0B1
:10180800F0A012D049504A10D8B4A7EC1AF04904F5
:101818004A10D8B4B8EC1AF0020E49184A10D8B4D5
:10182800C0EC1AF0F09013D0F0A211D049504A1031
:10183800D8B479EC1AF049044A10D8B495EC1AF0E7
:10184800020E49184A10D8B49EEC1AF0F0925F9232
:1018580011000001BD6F6D0E0001BD657CD0000E4A
:10186800A76F000EA86F3F0EA96F640E846FBD515D
:1018780025EC19F0B66FB651030D360EF326000E9F
:10188800F422900EF324F66EFE0EF420F76E090093
:10189800F5CFA4F00900F5CFA5F00A00F5CFA6F022
:1018A800E6EC11F0A4C0BAF0A5C0BBF0A6C0BCF02D
:1018B8000A0E846F640E806FBD51A7EC19F025ECF9
:1018C80019F0B66FB651030D1B0EF326000EF42265
:1018D800900EF324F66EFE0EF420F76E0900F5CF95
:1018E800A7F00900F5CFA8F00A00F5CFA9F0BAC013
:1018F800A4F0BBC0A5F0BCC0A6F0E6EC11F0A4C0F3
:10190800B7F0A5C0B8F0A6C0B9F0B7C0A4F0B8C089
:10191800A5F0B9C0A6F00A0E806FBD51A7EC19F06A
:10192800B66FB651030D900EF324F66EFE0EF4203A
:10193800F76E0900F5CFA7F00900F5CFA8F00A0067
:10194800F5CFA9F0E6EC11F0A4C0B3F0A5C0B4F04F
:10195800A6C0B5F012000A0EBD654FD0000EA76FE5
:10196800000EA86F3F0EA96F0A0E846FBD5125ECBB
:1019780019F0B66FB651030D1B0EF326000EF422B4
:10198800900EF324F66EFE0EF420F76E0900F5CFE4
:10199800A4F00900F5CFA5F00A00F5CFA6F0E6EC13
:1019A80011F0A4C0BAF0A5C0BBF0A6C0BCF0BAC084
:1019B800A4F0BBC0A5F0BCC0A6F00A0E806FBD5154
:1019C800A7EC19F0B66FB651030D900EF324F66E1E
:1019D800FE0EF420F76E0900F5CFA7F00900F5CF49
:1019E800A8F00A00F5CFA9F0E6EC11F0A4C0B3F016
:1019F800A5C0B4F0A6C0B5F01200BD51030D900EFD
:101A0800F324F66EFE0EF420F76E0900F5CFA4F06D
:101A18000900F5CFA5F00A00F5CFA6F0000EA76FD4
:101A2800000EA86F3F0EA96FE6EC11F0A4C0B3F04A
:101A3800A5C0B4F0A6C0B5F01200000E0001D96F21
:101A4800000EDA6F000EDB6F42EC15F053C0CAF0DF
:101A580054C0CBF055C0CCF050C0CDF051C0CEF042
:101A680052C0CFF0C5EC18F0CAC056F0CBC057F042
:101A7800CCC058F0000ED06F000ED16F000ED26FA0
:101A880056C0D3F057C0D4F058C0D5F05EEC16F06D
:101A9800D8B042D0000EA76F000EA86F400EA96FF5
:101AA80056C0A4F057C0A5F058C0A6F0E6EC11F057
:101AB800A4C0CAF0A5C0CBF0A6C0CCF0C0EC13F00F
:101AC800CAC0F3F0CBC0F4F0F45104E1150EF35D95
:101AD800D8A004D0000EF46F140EF36FF45108E18F
:101AE8000A0EF35DD8B004D0000EF46F0A0EF36F3F
:101AF800000ED06F500ED16F420ED26F53C0D3F08C
:101B080054C0D4F055C0D5F05EEC16F0D8B02CD047
:101B1800000EF46F0A0E27D053C0C1F054C0C2F0B3
:101B280055C0C3F04BC088F04CC089F00AEC1AF0DD
:101B380088C0BEF089C0BFF08AC0C0F0F8EC0DF0D4
:101B4800BEC0D0F0BFC0D1F0C0C0D2F050C0D3F0FA
:101B580051C0D4F052C0D5F05EEC16F0D8B004D025
:101B6800000EF46F000EF36F030E8A6F0B0EA3ECDA
:101B780018F0480ECFEC17F0030E00018A6F0F0E15
:101B8800A3EC18F0E90E00018E6FFF0E8F6F29ECA1
:101B980018F0030E00018A6F0D0EA3EC18F0F3C0C5
:101BA80080F0F4C081F0000E0001836F0A0E826F8E
:101BB800D1EC19F080C0EAF081C0EBF0650ED96F66
:101BC800010EDA6FF50EDB6FFF0EDC6FEAC0DDF099
:101BD800EBC0DEF009EC00F0650E00018E6F010E1F
:101BE8008F6F29EC18F01200C0C0C4F0C56BC66B2B
:101BF800BF35C43701E3C581C451C96FC3C0C4F040
:101C0800C56BC66BC235C43701E3C581C451C86F03
:101C1800C951D8B40AD0C851C95DD8B00DD0C9517E
:101C2800C85DC46F180EC46507D0C1C0BEF0C2C07D
:101C3800BFF0C3C0C0F01200C851D8B40AD0C9510F
:101C4800C85DD8B00DD0C851C95DC46F180EC46541
:101C580007D0BEC0BEF0BFC0BFF0C0C0C0F0120009
:101C6800060EC76FC0BFC78FC3BFC78DBF8FFF0E1C
:101C7800BE17FF0EBF17000EC017C28FFF0EC11789
:101C8800FF0EC217000EC317C851C95DD8B01BD0CC
:101C9800D890C137C237C337C807C951C819D8B493
:101CA8000DD0C707C7C0C4F0070EC417D8B406D0F4
:101CB800EFD7D890C033BF33BE33C92BC851C91929
:101CC800D8B41FD0F6D7C951C85DD8B01AD0D890AB
:101CD800BE37BF37C037C907C951C819D8B40DD0E6
:101CE800C707C7C0C4F0070EC417D8B406D0EFD7CB
:101CF800D890C333C233C133C82BC851C919D8A42B
:101D0800F7D7C7AF0CD0FF0EBE1BFF0EBF1BFF0ED1
:101D1800C01B010EBE27000EBF23000EC023C7AD97
:101D28000CD0FF0EC11BFF0EC21BFF0EC31B010E02
:101D3800C127000EC223000EC323000EC76FBE5179
:101D4800C127BF51C223C051C323C3AF0ED0FF0E5A
:101D5800C11BFF0EC21BFF0EC31B010EC127000EC5
:101D6800C223000EC323010EC76FC1C080F0C2C0DA
:101D780081F0C3C082F0C9C083F0C7C084F094EC7E
:101D880014F080C0BEF081C0BFF082C0C0F0120065
:101D98000BC00FF0106A116A0A340F3601E3108085
:101DA8000F50146E0EC00FF0106A116A0D340F3602
:101DB80001E310800F50136E1450D8B40AD013509A
:101DC800145CD8B00DD01450135C0F6E180E0F644D
:101DD80007D00CC009F00DC00AF00EC00BF01200BD
:101DE8001350D8B40AD01450135CD8B00DD0135087
:101DF800145C0F6E180E0F6407D009C009F00AC0F2
:101E08000AF00BC00BF01200060E126E0BBE128EFB
:101E18000EBE128C0A8EFF0E0916FF0E0A16000E51
:101E28000B160D8EFF0E0C16FF0E0D16000E0E165D
:101E38001350145CD8B01BD0D8900C360D360E3623
:101E4800130614501318D8B40DD0120612C00FF090
:101E5800070E0F16D8B406D0EFD7D8900B320A3237
:101E68000932142A13501418D8B41FD0F6D71450B6
:101E7800135CD8B01AD0D89009360A360B36140637
:101E880014501318D8B40DD0120612C00FF0070E54
:101E98000F16D8B406D0EFD7D8900E320D320C32C8
:101EA800132A13501418D8A4F7D712AE0CD0FF0E6B
:101EB800091AFF0E0A1AFF0E0B1A010E0926000E48
:101EC8000A22000E0B2212AC0CD0FF0E0C1AFF0EC9
:101ED8000D1AFF0E0E1A010E0C26000E0D22000E12
:101EE8000E22000E126E09500C260A500D220B50BD
:101EF8000E220EAE0ED0FF0E0C1AFF0E0D1AFF0E9C
:101F08000E1A010E0C26000E0D22000E0E22010ED6
:101F1800126E0CC001F00DC002F00EC003F014C028
:101F280004F012C005F0EBEC14F001C009F002C097
:101F38000AF003C00BF0120050C0CAF051C0CBF039
:101F480052C0CCF053C0CDF054C0CEF055C0CFF045
:101F5800C5EC18F0CAC04DF0CBC04EF0CCC04FF065
:101F6800000EF46F000EF36F000ED06F000ED16FED
:101F7800000ED26F4DC0D3F04EC0D4F04FC0D5F094
:101F88005EEC16F0D8B07AD04DC0A4F04EC0A5F0E3
:101F98004FC0A6F0000EA76F200EA86F410EA96FC4
:101FA800E6EC11F0A4C0F0F0A5C0F1F0A6C0F2F084
:101FB800F0C0D0F0F1C0D1F0F2C0D2F0000ED36F73
:101FC800C80ED46F410ED56F5EEC16F0D8A007D0BE
:101FD800F0C0EDF0F1C0EEF0F2C0EFF006D0000E68
:101FE800ED6FC80EEE6F410EEF6FEDC0D9F0EEC089
:101FF800DAF0EFC0DBF042EC15F0030E8A6F0B0E3F
:10200800A3EC18F041C080F042C081F0000E00013E
:10201800836F280E826FD1EC19F080C088F081C0E0
:1020280089F00AEC1AF088C08CF089C08DF08AC05B
:102038008EF0000E8F6FE00E906F400E916FDAEC0D
:1020480012F08CC0EAF08DC0EBF08EC0ECF0650E9B
:10205800D96F010EDA6FBB0EDB6FFF0EDC6FEAC0C3
:10206800DDF0EBC0DEF0ECC0DFF009EC00F0650E4F
:1020780000018E6F010E8F6F29EC18F050C0D0F060
:1020880051C0D1F052C0D2F04BC088F04CC089F09A
:102098000AEC1AF088C0CDF089C0CEF08AC0CFF023
:1020A80053C0CAF054C0CBF055C0CCF0C5EC18F002
:1020B800CAC0D3F0CBC0D4F0CCC0D5F05EEC16F0DB
:1020C800D8B01200000EF46F050EF36F1200000E68
:1020D800C26E0C0EC16E92689368800E946E000EEC
:1020E800956E000E966E000E836E000E9D6EAE50BD
:1020F800B896000EAC6E190EAF6EAC84AC8A000EAA
:10210800AB6EAB88AB8ECD82CD80CD9ACD98B19A8F
:10211800B198B184B198B19AB18E000ECF6E000E0D
:10212800CE6E400EB36E000EB26EB180B192A08238
:10213800A282D08EF28CF28EF28EF28CF28A000E8F
:10214800F16E000EF06EF18CF18AF086F0889480C2
:102158008294829A000E4C6E000E4B6E000E536EE7
:10216800000E546E000E556E000E0101856F000EB4
:10217800866F000E876F000E506E000E516E000EB7
:10218800526E000E4D6E000E4E6E000E4F6E000E1B
:10219800566E000E576E000E586E000E4A6E000EF8
:1021A800496E000E486E000E476E000E0001F46F77
:1021B800000EF36F000E466E000E456E000E446E64
:1021C800000E436ED09EF28AF288B0EC1AF012002C
:1021D80082C086F0876B886B8135863701E38781FB
:1021E80086518E6F8E51D8A409D0000E806F000ED4
:1021F800816F000E826F000E836F120085C086F01B
:10220800876B886B8435863701E3878186518D6FAC
:102218008D51D8B4EAD7818FFF0E8017FF0E811732
:10222800000E8217848FFF0E8317FF0E8417000E8F
:102238008517000E896F000E8A6F000E8B6F000ED7
:102248008C6F7F0E8E5F8D51980F8E5F180E8D6F7D
:10225800D89089378A378B378C378351805D845182
:10226800815985518259D8A007D08351805F845104
:10227800815B8551825B8981D8908037813782372D
:102288008D2FE6D78EAF0DD08E51800A970FD8A02C
:10229800ACD7D8908C338B338A3389338E3FF9D7B8
:1022A8000DD0170E8E6507D0A0D7D89089378A37FA
:1022B8008B378C378E078E51D8A4F7D789C080F01A
:1022C8008AC081F08BC082F08CC083F012000001BC
:1022D800823583358B6F8B51D8A409D0000E806F5F
:1022E800000E816F000E826F000E836F120085351D
:1022F80086358A6F8A51D8B4F1D7828FFF0E80173E
:10230800FF0E8117FF0E8217000E8317858FFF0EB1
:102318008317FF0E8417FF0E8517000E8617000E11
:10232800866F000E876F000E886F000E896F7F0E14
:102338008B5F8A51A00F8B5F200E8A6FD8908637EB
:102348008737883789378351805D84518159855112
:10235800825986518359D8A009D08351805F84510E
:10236800815B8551825B8651835B8681D8908037FB
:102378008137823783378A2FE1D78BAF0DD08B51C6
:10238800800A9F0FD8A0AAD7D8908933883387337B
:1023980086338B3FF9D70DD01F0E8B6507D09ED79C
:1023A800D89086378737883789378B078B51D8A4D9
:1023B800F7D786C080F087C081F088C082F089C0D6
:1023C80083F01200A6C0AAF0AB6BAC6BA535AA3798
:1023D80001E3AB81AA51AD6FAD51D8A407D0000E6F
:1023E800A46F000EA56F000EA66F1200A9C0AAF078
:1023F800AB6BAC6BA835AA3701E3AB81AA51B26FBE
:10240800B251D8A407D0000EA46F000EA56F000E1D
:10241800A66F1200B2517B0FAD27A6C0B2F0A9512A
:10242800B21B800EB217A58FA88FFF0EA717FF0E3D
:10243800A817000EA917000EAE6F000EAF6F000EA2
:10244800B06F070EB16FA4A106D0A751AE27A8514F
:10245800AF23A951B023D890A633A533A433D8907D
:10246800A737A837A937B12FEED7090EB16FA4A1A6
:1024780006D0A751AE27A851AF23A951B023D890B1
:10248800A633A533A433D890B033AF33AE33B12FCE
:10249800EED7AEC080F0AFC081F0B0C082F0ADC062
:1024A80083F0B2C084F094EC14F080C0A4F081C032
:1024B800A5F082C0A6F012000EC012F0136A146ACA
:1024C8000D34123601E313801250156E1550D8A43E
:1024D80007D0000E0C6E000E0D6E000E0E6E120070
:1024E80011C012F0136A146A1034123601E3138013
:1024F80012501A6E1A50D8A407D0000E0C6E000E97
:102508000D6E000E0E6E12001A507B0F15260EC0AF
:102518001AF011501A1A800E1A160D8E108EFF0E10
:102528000F16FF0E1016000E1116000E166E000E76
:10253800176E000E186E070E196E0CA006D00F50FD
:1025480016261050172211501822D8900E320D322C
:102558000C32D8900F3610361136192EEED7090ED8
:10256800196E0CA006D00F501626105017221150C5
:102578001822D8900E320D320C32D89018321732F9
:102588001632192EEED716C001F017C002F018C087
:1025980003F015C004F01AC005F0EBEC14F001C00C
:1025A8000CF002C00DF003C00EF012008EC092F0C5
:1025B800936B946B8D35923701E393819251996FA8
:1025C8009951D8A407D0000E8C6F000E8D6F000EA5
:1025D8008E6F120091C092F0936B946B9035923786
:1025E80001E3938192519A6F9A51D8A407D0000EB3
:1025F8008C6F000E8D6F000E8E6F1200000E966F9E
:10260800000E976F000E986F9A51890F995F8EC0D0
:102618009AF091519A1B800E9A178D8FFF0E8C1786
:10262800FF0E8D17000E8E17908FFF0E8F17FF0E5F
:102638009017000E9117180E956FD8909637973708
:1026480098378F518C5D90518D5991518E59D8A0E2
:1026580007D08F518C5F90518D5B91518E5B968125
:10266800D8908C378D378E37952FE7D796C080F066
:1026780097C081F098C082F099C083F09AC084F026
:1026880094EC14F080C08CF081C08DF082C08EF084
:1026980012001DC021F0226A236A1C34213601E38E
:1026A80022802150286E2850D8A407D0000E1B6E17
:1026B800000E1C6E000E1D6E120020C021F0226A52
:1026C800236A1F34213601E322802150296E2950C4
:1026D800D8A407D0000E1B6E000E1C6E000E1D6ED7
:1026E8001200000E256E000E266E000E276E295071
:1026F800890F285E1DC029F02050291A800E29163E
:102708001C8EFF0E1B16FF0E1C16000E1D161F8EAC
:10271800FF0E1E16FF0E1F16000E2016180E246E32
:10272800D8902536263627361E501B5C1F501C585D
:1027380020501D58D8A007D01E501B5E1F501C5A91
:1027480020501D5A2580D8901B361C361D36242E45
:10275800E7D725C001F026C002F027C003F028C043
:1027680004F029C005F0EBEC14F001C01BF002C026
:102778001CF003C01DF01200CCC0CEF00001CF6BDE
:10278800D06BCB35CE3701E3CF81CE51D86FD8513E
:10279800D8A409D0000ECA6F000ECB6F000ECC6F04
:1027A800000ECD6F1200170ECE6FCAC0CFF0CBC08F
:1027B800D0F0CCC0D1F0CE29D26F04D0D890D1338C
:1027C800D033CF33D22FFAD70001CF51D36FCB8F6D
:1027D800FF0ECA17FF0ECB17000ECC17CA51D46FC5
:1027E800CB51D56FCC51D66FD76B8E0ED85FD8AF83
:1027F8000DD0D851800A8F0FD8A0CCD7D890D73316
:10280800D633D533D433D83FF9D70DD0170ED86582
:1028180007D0C0D7D890D437D537D637D737D807C9
:10282800D851D8A4F7D7D351D8B408D0D71FD61FBA
:10283800D51FD46D000ED523D623D723D4C0CAF014
:10284800D5C0CBF0D6C0CCF0D7C0CDF0120017C0A1
:1028580019F01A6A1B6A1634193601E31A801950DE
:10286800236E2350D8A409D0000E156E000E166EE4
:10287800000E176E000E186E1200170E196E15C096
:102888001AF016C01BF017C01CF019281D6E04D0D2
:10289800D8901C321B321A321D2EFAD71A501E6ECF
:1028A800168EFF0E1516FF0E1616000E171615506B
:1028B8001F6E1650206E1750216E226A8E0E235EF0
:1028C80023AE0DD02350800A8F0FD8A0CDD7D89033
:1028D8002232213220321F32233EF9D70DD0170E73
:1028E800236407D0C1D7D8901F3620362136223628
:1028F80023062350D8A4F7D71E50D8B408D0221ED8
:10290800211E201E1F6C000E2022212222221FC001
:1029180015F020C016F021C017F022C018F01200E0
:102928008351D8B405D0805181118211D8A40CD01C
:10293800000E806F000E816F000E826F1200832BD5
:10294800D890823381338033000E8015856F000E56
:102958008115866FFE0E8215876F85518611871146
:10296800D8B40CD0ECD7832B010E8027000E81231E
:10297800000E8223D890823381338033000E801575
:10298800856F000E8115866FFF0E8215876F855142
:1029980086118711D8B406D0E6D78307D890803738
:1029A8008137823781BF03D0020E8361F6D783A1B6
:1029B800819FD8908333835182138451D8A4828F06
:1029C80080C080F081C081F082C082F01200045083
:1029D800D8B405D0015002100310D8A40CD0000EB2
:1029E800016E000E026E000E036E1200042AD890CB
:1029F800033202320132000E0114066E000E021478
:102A0800076EFE0E0314086E065007100810D8B49F
:102A18000CD0ECD7042A010E0126000E0222000E6B
:102A28000322D890033202320132000E0114066EDE
:102A3800000E0214076EFF0E0314086E06500710EE
:102A48000810D8B406D0E6D70406D8900136023666
:102A5800033602BE03D0020E0460F6D704A0029E1D
:102A6800D8900432045003120550D8A4038E01C034
:102A780001F002C002F003C003F01200C00EA76FFD
:102A88007F0EA86F440EA96FD9C0A4F0DAC0A5F0D4
:102A9800DBC0A6F0E6EC11F0A4C08CF0A5C08DF068
:102AA800A6C08EF0000E8F6FC80E906F420E916F09
:102AB800DAEC12F08CC0DCF08DC0DDF08EC0DEF0F8
:102AC800000EC16F000EC26F3F0EC36FDCC0BEF0B8
:102AD800DDC0BFF0DEC0C0F0F8EC0DF0BEC0CAF03B
:102AE800BFC0CBF0C0C0CCF0C0EC13F0CAC0DFF060
:102AF800CBC0E0F0E0BF07D0040EE05DD8A003D063
:102B0800030EE06FDF69DFC080F0E0C081F079EC90
:102B180019F01200C00E0F6E7F0E106E440E116E6B
:102B28002AC00CF02BC00DF02CC00EF060EC12F097
:102B38000CC01BF00DC01CF00EC01DF0000E1E6E68
:102B4800C80E1F6E420E206E4DEC13F01BC02DF008
:102B58001CC02EF01DC02FF0000E0C6E000E0D6E66
:102B68003F0E0E6E2DC009F02EC00AF02FC00BF0DC
:102B7800CCEC0EF009C015F00AC016F00BC017F027
:102B88002BEC14F015C030F016C031F031BE07D070
:102B9800040E315CD8A003D0030E316E306830C00B
:102BA80001F031C002F090EC19F01200000E8B6FAA
:102BB80089AF06D0886D891FD8B0892B010E8B6F1D
:102BC80087AF06D0866D871FD8B0872B010E8B1B69
:102BD800000E8D6F000E8C6F88518911D8B41CD0EF
:102BE800010E8A6F04D0D890883789378A2B89AF2D
:102BF800FAD7D8908C378D378851865D8951875997
:102C0800D8A005D08851865F8951875B8C81D89080
:102C1800893388338A2FEDD78B51D8B404D08C6D83
:102C28008D1FD8B08D2B8CC086F08DC087F0120018
:102C3800000E0001886F000E896F000E8A6F000E6B
:102C48008B6F8451851186118711D8B42AD0010E53
:102C58008C6F06D0D89084378537863787378C2B8A
:102C680087AFF8D7D890883789378A378B37845118
:102C7800805D855181598651825987518359D8A0E1
:102C880009D08451805F8551815B8651825B875171
:102C9800835B8881D89087338633853384338C2F40
:102CA800E1D788C080F089C081F08AC082F08BC0EB
:102CB80083F01200D2AF0FD0000ED66F000ED76F80
:102CC800800ED86FD051D65DD06FD151D759D16F02
:102CD800D251D859D26FD5AF0FD0000ED66F000E93
:102CE800D76F800ED86FD351D65DD36FD451D759D3
:102CF800D46FD551D859D56F000ED01B000ED11BFB
:102D0800800ED21B000ED31B000ED41B800ED51BC9
:102D1800D351D05DD451D159D551D259D8B002D060
:102D2800D8901200D88012001DAE0FD0000E216E70
:102D3800000E226E800E236E1B50215C1B6E1C50F1
:102D480022581C6E1D5023581D6E20AE0FD0000E49
:102D5800216E000E226E800E236E1E50215C1E6EA8
:102D68001F5022581F6E20502358206E000E1B1A29
:102D7800000E1C1A800E1D1A000E1E1A000E1F1AB5
:102D8800800E201A1E501B5C1F501C5820501D58C6
:102D9800D8B002D0D8901200D8801200000E856FEB
:102DA80081AF06D0806D811FD8B0812B010E856F51
:102DB80083AF04D0826D831FD8B0832B82518311D7
:102DC800D8B418D0010E846F04D0D89082378337D6
:102DD800842B83AFFAD78251805D83518159D8A063
:102DE80004D08251805F8351815BD89083338233D2
:102DF800842FF1D78551D8B404D0806D811FD8B005
:102E0800812B80C080F081C081F012000001A16F89
:102E18000001A15106EC19F080C0A2F081C0A3F016
:102E2800A2C080F0A3C081F0000E836F050E826FF0
:102E3800D1EC19F080C088F081C089F043EC19F01A
:102E480088C08CF089C08DF08AC08EF0C00E8F6F5C
:102E58007F0E906F440E916FDAEC12F08CC09EF0EA
:102E68008DC09FF08EC0A0F09EC09BF09FC09CF0CC
:102E7800A0C09DF01200000191519211931194117C
:102E8800D8B424D0010E956F06D0D89091379237D8
:102E980093379437952B94AFF8D791518D5D925114
:102EA8008E5993518F5994519059D8A008D0915167
:102EB8008D5F92518E5B93518F5B9451905BD8904C
:102EC8009433933392339133952FE7D78DC08DF098
:102ED8008EC08EF08FC08FF090C090F01200849456
:102EE8008492000E0001816F190E806FBDEC19F0FD
:102EF800010E8A6F030EF7EC19F0000E0001816FC6
:102F0800060E806FBDEC19F08A2B030E8A65F2D786
:102F1800020EF7EC19F0000E00018A6F8A51590F62
:102F2800D96EDA6ADF50886F000E55EC18F0000190
:102F38008A2B030E8A65F2D712008E0E906F06D088
:102F4800D8908B338A3389338833902B000E8815B9
:102F58008C6F000E89158D6F000E8A158E6FFF0E0F
:102F68008B158F6F8C518D118E118F11D8A4E8D7C6
:102F780088C080F089C081F08AC082F090C083F058
:102F8800000E846F94EC14F080C088F081C089F042
:102F980082C08AF0120000018D6F1FD0010E886F69
:102FA800000E55EC18F0000E0001816F020E806FC4
:102FB800BDEC19F01200020E8A6F010EA3EC18F096
:102FC8001200100E886F000E55EC18F012008DC01C
:102FD80088F0010E55EC18F0120000018D51080A16
:102FE800D8B4EFD7020AD8B4E6D7060AD8B4D6D7E9
:102FF800EED716D081C0F6FF82C0F7FF000EF86E3C
:103008000F0EF76403D00800F55005D0F6CFE9FF9E
:10301800F7CFEAFFEF5083EC1AF00001814B822BC7
:1030280081C0F6FF82C0F7FF000EF86E0F0EF7643E
:1030380003D00800F55005D0F6CFE9FFF7CFEAFF37
:10304800EF500009D8B41200D5D716D08EC0F6FFBD
:103058008FC0F7FF000EF86E0F0EF76403D008005C
:10306800F55005D0F6CFE9FFF7CFEAFFEF50CFECE8
:1030780017F000018E4B8F2B8EC0F6FF8FC0F7FF25
:10308800000EF86E0F0EF76403D00800F55005D057
:10309800F6CFE9FFF7CFEAFFEF500009D8B41200E6
:1030A800D5D70001896F000189B102D0849401D07D
:1030B8008484010E5FEC19F0010E5FEC19F0849224
:1030C80088390F0BF7EC19F0000188510F0BF7EC5A
:1030D80019F000018951D8B405D0320E0400E82E49
:1030E800FDD71200000E816F020E806FBDEC19F043
:1030F8001200A60EF66E350EF76E000EF86E00EE94
:1031080059F010EE06F00900F5CFEEFFE550E1505A
:10311800FAE101EE65F0200EEE6AE806FDE1000135
:10312800F46BF36B00EE37F0160EEE6AE806FDE17D
:103138005F905F92000EF86E000121EF06F08B6F32
:1031480009D0800E05D0C00E03D0900E01D0D00E4D
:103158008C6F0ED000018A51010AD8B4F2D7030A45
:10316800D8B4F1D7010AD8B4F0D7070AD8B4EFD742
:103178008B058C278C518009886F000E55EC18F050
:1031880012000001CD51CE11CF11D8B406D0000ED7
:10319800CD1B000ECE1B800ECF1BCAC0BEF0CBC00D
:1031A800BFF0CCC0C0F0CDC0C1F0CEC0C2F0CFC01F
:1031B800C3F0F8EC0DF0BEC0CAF0BFC0CBF0C0C081
:1031C800CCF01200185019101A10D8B406D0000EFE
:1031D800181A000E191A800E1A1A15C009F016C00E
:1031E8000AF017C00BF018C00CF019C00DF01AC087
:1031F8000EF0CCEC0EF009C015F00AC016F00BC0AA
:1032080017F01200846F84C082F000018247824761
:10321800C2508219C30B8219C26EC282C2B2FED7D3
:10322800C350C4CF82F00001836B82C083F0826BED
:103238008211856F8351866F85C080F086C081F0CA
:103248001200856F000E0001876F8451D8B415D025
:10325800010E866F03D0D8908437862B84AFFBD7B6
:10326800D89087378451855DD8A003D08451855F75
:103278008781D8908433862FF3D787511200000EA8
:103288008B6F89AF06D0886D891FD8B0892B010E46
:103298008B6F88C080F089C081F0826B8E0E836F3F
:1032A8008BC084F094EC14F080C088F081C089F061
:1032B80082C08AF012000001836F000E0001856F42
:1032C800000E846F04D004000001844B852B8351C9
:1032D800806F816B8451805D8151800A826F855136
:1032E800800A8259D8A01200EED780C082F081C02F
:1032F80083F0D89083338233D890833382338251DA
:10330800BE6E80C082F0030E8217823BBD508219C8
:10331800CF0B8219BD6E120001C003F002C004F089
:10332800D89004320332D890043203320350BE6E70
:1033380001C003F0030E0316033ABD500318CF0B68
:103348000318BD6E1200816F080E0001826F000E17
:10335800836FD89081358335836FD89081378051BA
:10336800835DD8A002D08051835F822FF2D783512A
:103378001200000E836F000E826F08D0C80E040082
:103388000400E82EFCD70001824B832B8051825D1C
:1033980081518359D8B01200F1D780518203F3CFFD
:1033A80084F0F4CF85F080518303F3508527815151
:1033B8008203F350852784C080F085C081F0120015
:1033C8000001805181118211D8B406D0000E801BF3
:1033D800000E811B800E821B80C080F081C081F0AE
:1033E80082C082F012000001876F87C086F000015A
:1033F800863B835086190F0B8619836E010E5FEC8E
:1034080019F08482040000F08492120088C080F0D1
:1034180089C081F00001826B8E0E836F000E846F6D
:1034280094EC14F080C088F081C089F082C08AF0E2
:10343800120009C001F00AC002F0036A8E0E046E81
:10344800000E056EEBEC14F001C009F002C00AF0A2
:1034580003C00BF012000001826F000E0001816FA3
:103468003A0E826105D02F0E826502D0010E816F5F
:1034780081C080F080311200B896000EAC6E190E33
:10348800AF6E000EB06EAC84AC8A000EAB6EAB882B
:10349800AB8EAE50AE501200494A4A2A030E491864
:1034A8004A10D8A404D0000E4A6E000E496E000ED1
:1034B800446E000E436E1200000EC26E0C0EC16EFA
:1034C8009368800E946E9268000E956E000E966E4C
:1034D8001200ABB402D0ABA202D0AB98AB889EAAC4
:1034E80002D0010E1200000E12000001F45106E194
:1034F800140EF35DD8B01200F34BF42B1200000148
:10350800806F01D00400ACA2FDD780C0ADFF1200CF
:10351800000ECF6E000ECE6E9E0EB36E580EB26EBB
:103528001200465006E1140E455CD8B01200454A18
:10353800462A12004C5006E1050E4B5CD8B012002A
:103548004B4A4C2A12000001F351F411D8B412006E
:10355800F307D8A0F4071200CB68000ECA6E0C0E51
:10356800BD6ECA849494120045504610D8B4120017
:103578004506D8A0460612004B504C10D8B412008D
:103588004B06D8A04C061200000EC26EC280890EEF
:10359800C06E1200AECF80F0000180511200280CDE
:0435A8000106010017
:10FE68000000803F00204100C842007A44401C4600
:10FE780050C34724744997184BBCBE4C6B6E4E0355
:10FE8800155079AD60F3497100803FCDCC3DD72343
:10FE98003C12833AB7D138C62737388635C0D633AF
:10FEA800CC2B32708930E7DB2EE53C1E42A20D01D7
:10FEB8000000000A00000064000000E803000010D1
:10FEC800270000A086010040420F0080969800009D
:10FED800E1F50500CA9A3B70657263656E74486502
:10FEE8006174436F756E7465723A253064252520F8
:10FEF80070657263656E74436F6F6C436F756E7473
:10FF080065723A25306425250D0A000D0D5265618C
:10FF180064696E6720444174612041626F75742082
:10FF28007468652041697220636F6E646974696FD3
:10FF38006E65720053503A25342E32664320204FA6
:10FF4800543A25342E3266430D0A00486561743AE6
:10FF58004F4E20436F6F6C203A4F46460D0A0043C0
:10FF68006F6F6C3A4F4E2048656174203A4F464691
:10FF78000D0A004F543A25342E3266432025733A31
:10FF88002530642525200052543A25342E32664304
:10FF98000D0A0053503A25342E326643200052543D
:10FFA8003A25342E32664320004F543A25342E32F7
:10FFB800664300523A25342E326600286E756C6C02
:10FFC80029004175746F0A004D443A257300436F48
:10FFD8006F6C004175746F00486561740048204378
:10FFE80000202000484300434C004854002564008A
:07FFF80048004E0059000013
:020000040020DA
:08000000FFFFFFFFFFFFFFFF00
:020000040030CA
:0E000000FF011F1FFF8385FF0FC00FE00F40A1
:00000001FF
